:1020000000800020755200005D5200005D5200000B
:1020100000000000000000000000000000000000C0
:102020000000000000000000000000005D52000001
:1020300000000000000000005D520000C9520000D6
:102040005D5200005D5200005D5200005D520000D4
:10205000CD5500005D5200005D520000615200004D
:102060005D5200005D5200005D5200005D520000B4
:102070005D5200005D5200006D5100005D52000095
:102080005D5200005D5200005D5200005D52000094
:10209000000000005D5200005D5200005D52000033
:1020A0005D5200005D5200005D5200005D52000074
:1020B0000000000010B5064C2378002B07D1054B1B
:1020C000002B02D0044800E000BF0123237010BDA4
:1020D0008001002000000000F4BB000008B5084BA0
:1020E000002B03D00748084900E000BF07480368F9
:1020F000002B03D0064B002B00D0984708BDC046EC
:1021000000000000F4BB00008401002074010020E6
:102110000000000008B502F029FF08BD704700006C
:1021200007B5002300930348191C1A1C03F016FC82
:1021300007BDC0469C010020014B19617047C04695
:10214000AC01002030B587B0041C00F083FB304B9D
:102150006846009301F006F8051E07D0031C0D33F6
:1021600004D00021062000F0CAFE4AE002F0B8F9CF
:1021700002F0B2FA2748284902F0CEF900210123E3
:10218000201CE367E3601C22617621606160A1602E
:1021900021616161603006F0C3FF204B1A68204B5B
:1021A0009A4202D91F4800F0BEFE0121042000F02F
:1021B000A6FE0121052000F0A2FE0121062000F06C
:1021C0009EFE0121042000F086FE0121052000F082
:1021D00082FE0121062000F07EFE0120011C00F09D
:1021E0008EFE0121022000F08AFE0121032000F072
:1021F00086FE0120011C00F06EFE0220012100F08D
:102200006AFE0121032000F066FE281C07B030BDE5
:1022100045250000ED460000392100007C02002029
:102220004F130000FF030000C36F70B5041C002BA8
:1022300001D1FFF787FFE368002B03D00023236061
:102240006360A36000F0DCFF002802DA04206076FF
:1022500027E0002363760123237603F043F8061C6E
:10226000657E07231D4005D103F03CF80D4B801B14
:10227000984212D9201C21223D30002106F050FF47
:10228000627E0323134001D1237604E001F0E6F8D7
:10229000002000F09FFF607E03E0281C00F09AFF02
:1022A000DEE770BD5FEA0000F0B5171CC26FA5B095
:1022B000041C01911D1C002A01D1FFF743FF882255
:1022C000002102A806F02CFF019902A807F00CF8E3
:1022D0006B460A33DD7701253D331D70002612ABB6
:1022E00049221E706A44C02313706B464A33A822E9
:1022F0001A705D7002A813AB391C2A1C1D7001F006
:1023000063F8B04202DA0B20607625E00A23271C2E
:1023100063763D3702232376311C2122381C06F0D8
:10232000FFFE019806F0E8FF0199021C381C06F038
:10233000D5FE69460422201C493100F055FB074BAD
:10234000311C636023680420A36000F0D8FD281CC2
:10235000311C00F0D4FD607E25B0F0BDFFFFFF0012
:1023600013B5081C0C1C01F00BF8684601F008F8C6
:10237000002300A8C11849795A42013BA1549A1D73
:10238000F7D1201C16BD0000F8B5C36F041C467EB3
:10239000002B01D1FFF7D6FEFF2000F0CDFF002378
:1023A00098420EDB637602F09DFF071C657E0223D8
:1023B0001D4009D102F096FF084BC01B984208D976
:1023C00002E0181C40B2F8BD667600F0F7FFC0B21C
:1023D000F8E7281C00F0FEFEE8E7C046871300007F
:1023E000F7B5061C437E1A360D1C21220021041C61
:1023F000301C019306F094FE281C00F0D0FF00234F
:1024000098420EDB637602F06DFF071C657E0223A7
:102410001D4008D102F066FF084BC01B984208D946
:1024200001E0181C09E0019B301C63760023236146
:1024300003E0281C00F0CEFEE8E7FEBDCF07000059
:10244000F8B5041C467E081C00F0A9FF0023984242
:102450000EDB637602F046FF071C657E02231D40FB
:1024600008D102F03FFF084BC01B984207D901E09A
:10247000181C08E0002320696676236103E0281C0D
:1024800000F0A8FEE9E7F8BDCF070000F8B5041C8E
:10249000467E081C00F083FF002398420EDB637623
:1024A00002F020FF071C657E02231D4008D102F0C8
:1024B00019FF094BC01B984208D901E0181C09E01C
:1024C0000023667623613B34207803E0281C00F06B
:1024D00081FEE8E7F8BDC046CF070000C36F10B526
:1024E000041C002B01D1FFF72DFE002000F072FE2E
:1024F000607E10BD30B587B0041C0D1CFFF794FE44
:10250000032810D06946201CFFF72AFF69464A7845
:102510000B7802A8064906F0C5FE201C02A9054A50
:102520002B1CFFF7C1FE201CFFF7D8FF07B030BD02
:1025300077B2000087B2000008B50121FFF7DAFF8B
:1025400008BD0000F0B50C1C85B0132800D1ABE02D
:1025500011D8062800D1D9E007D8042800D0F3E02C
:1025600000228A56794B1A61EEE0092868D01128BA
:1025700000D193E0E8E02A2809D003D81B2800D135
:10258000D9E0E1E02C2809D0322845D0DCE0002356
:10259000CB560622002B00D084E0D5E00B78012B2F
:1025A00011D16A4B1A7E012A07D1D968002900D0BF
:1025B000CAE003225A7604202BE0032A00D0C3E0AD
:1025C00008225A76C0E0002B00D0BDE05F4A117EA1
:1025D000141C012913D1E06806226276002802D07B
:1025E00023606360A36000256319186E002802D081
:1025F00003685B6A984704351C2DF5D103E0032975
:1026000001D1072353760121042000F078FC01203A
:10261000011C00F074FC97E04C4B1D7E012D00D096
:1026200092E00A68C8684C681A605860032200216A
:1026300004209C605A7600F062FC281C0021E8E728
:102640000B1C63331E78414D002E21D12F1C3D37CA
:10265000311C2122381C06F063FD201C06F04CFEC4
:10266000211C021C381C06F039FD0123201C2B768E
:102670002E606E60AE6006F03FFE231CC1B2623376
:10268000FF201A780090413B201C00F04BFE5BE0DD
:102690000B23281C6B76FFF74FFF55E00B78002BC0
:1026A00052D00222294B8CE70D1C0A35281C0395B9
:1026B00006F022FE254D071C2E1C1A36301C002168
:1026C000212206F02DFDBBB2002B04D01A1C301CB9
:1026D000039906F003FD6869052300280DD1012345
:1026E000E3562B61A2782B1C3B331A70E2782B1C2B
:1026F0003C331A7002236B7626E0E2181179686980
:102700000522D21A8154013BF7D2E8E70F4B5A69F0
:10271000002A0AD02218253211785D690622121A81
:102720000138A9540028F5D15861181C211C3D30EE
:1027300006F0DAFD08E0054D2869002804D00822DB
:1027400006F0CCFC00232B6105B0F0BDAC010020ED
:1027500013B50024221C231C0094211C044803F000
:10276000FDF8044BFF221C765A76DC6713BDC04689
:10277000A4010020AC01002007B50023009303480A
:10278000191C1A1C03F0EAF807BDC04638020020E5
:1027900007B5002300930348191C1A1C03F0DEF848
:1027A00007BDC0464002002007B500230093034840
:1027B000191C1A1C03F0D2F807BDC04648020020BD
:1027C00007B5002300930348191C1A1C03F0C6F830
:1027D00007BDC0465002002007B500230093034800
:1027E000191C1A1C03F0BAF807BDC0465802002095
:1027F00008B5034B1B68002B00D0984708BDC046A6
:102800006002002008B502F047FE08BD08B502F0DE
:10281000C5FE08BD10B5041C002C04D0012002F038
:1028200067FD013CF8E710BD10B5094C00202056AB
:10283000002102F0E3FF6420FFF7ECFF00202056A8
:10284000012102F0DBFF6420FFF7E4FF10BDC0466A
:102850000500002038B5104B104D00241C600020EE
:102860002856012102F070FF00202856012102F0B5
:10287000C5FF0B4B00201856211C02F065FF094BC9
:1028800000201856A04202DB022102F05DFFFFF794
:10289000CBFF002038BDC0466002002005000020AC
:1028A000040000200600002008B5054B054918600B
:1028B000054B002018560322FFF7A4FF08BDC046B1
:1028C00060020020F12700000400002008B5074B3B
:1028D000002806D00020185605490322FFF792FF72
:1028E00003E000201856FFF791FF08BD0400002008
:1028F000F127000010B50A4802F076FA094C0020D2
:102900002056012102F020FF00202056012102F074
:1029100075FFFFF789FF0120FFF77CFF002010BD46
:102920006003002007000020F0B585B003283DD1EA
:102930006B460C680F3300220E894D681A70944262
:1029400006D0954230D10121019500911D1C03E074
:102950000122009401921C1C164F174B381C06CB09
:1029600002F072FA154B00201856002102F046FFC3
:10297000002E0FD02178381C02F094FA00992870AC
:102980004B424B410199013EED184B424B41B6B2CF
:10299000E418EDE7094A00201056012102F02EFF4D
:1029A000381C02F06DFA02E0FA2600E0FF2670B251
:1029B00005B0F0BD60030020640200200700002085
:1029C00008B5024802F038FA002008BD6003002074
:1029D000034B044A1A6000225A711A717047C046AC
:1029E00064020020001BB70010B500239A4203D0F8
:1029F000CC5CC4540133F9E710BD8318002A03D01E
:102A0000017001309842FBD17047021C031C1978F9
:102A1000981A80B2002901D00133F8E7704700000E
:102A2000024BDA780132D2B2DA7070473C0A0020E9
:102A30007047000007B50A4B002201209A70FFF78B
:102A400045FF084801A900F043FF002806D1019B7B
:102A5000022119430348019100F03EFF40B20EBD30
:102A60003C0A00207010000010B50B4C0020A37829
:102A700083420FD16378834205D06378002001330D
:102A8000DBB2637006E02378002BF6D000F0B5FDD2
:102A90000028F2D040B210BD3C0A0020044B5A7806
:102AA000002A03D05A78013AD2B25A7000207047F7
:102AB0003C0A002008B5094B5A78002A03D05A78FE
:102AC000013AD2B25A705A780020824204D11B785F
:102AD000834201D000F062FD40B208BD3C0A0020F4
:102AE00010B5064C0021201C2822FFF786FF044861
:102AF000FFF7DAFE034B0020E36110BD3C0A002023
:102B0000212A0000312A0000F0B58BB01D1C10AB4B
:102B10000F1C02CB02921B887F22019312AB1B88F1
:102B20003A40039306AB5A70082218705A80061C6C
:102B30005A88002904D001998A1803998A1800E05C
:102B4000AA1892B25A80FFF78FFF031C002B00D007
:102B500095E06A460893D3820793079B3F021E4382
:102B60000796079B06AE1F430797079A7388454849
:102B70001B0413430793079900F0AEFE041E00D018
:102B80007AE00790079B02221343079307993E4878
:102B900000F0A2FE041E6FD16B460890D8826C46EE
:102BA00016342288394B9A4205D8374807A900F0D5
:102BB0008FFE002803D0089B002B1BD158E0F42384
:102BC0002288FF339A4203D901202388FFF722FE8F
:102BD000079F02231F4007D12D4808A900F078FE67
:102BE000041EE8D0089747E06B46DA8A013292B2B9
:102BF000DA82D4E7089B311C0993738808229BB2C0
:102C00007380099800F08CFE041E35D1099B02994F
:102C100008330993002908D009982A1C00F080FE87
:102C2000041E29D1099BEB180993109A002A0FD092
:102C30000399099B4D1BED180995111C0998019AE0
:102C400000F06EFE041E17D1099B019AD318099358
:102C5000089B02229B000793079B0E481343079390
:102C6000079900F039FE041E06D1FFF723FF06E0A6
:102C7000FFF720FFFD2002E0FFF710FF201C40B20D
:102C80000BB0F0BD8C10000078100000E7030000CE
:102C9000000415006C100000F0B5574B87B01A788F
:102CA000002A0BD1554BDE781D1CF6B2002E00D148
:102CB0009FE0DA78013AD2B2DA700FE001F0B4FBAB
:102CC000002696E0039B0122F42613420DD14A4AC6
:102CD0001378002B00D08CE0002EE3D0484803A9E5
:102CE00000F0F6FD061EF2D1ECE70020FFF7EEFD46
:102CF000039B0122934303930399414800F0ECFDA9
:102D0000061EE4D10123AB70039BFE269B041B0D22
:102D10000193DCD0059005A93A4800F0D9FD071EC3
:102D20000ED1019A059804AC6860211CAA600422A7
:102D300000F0D6FD6388071C9BB2061C638003D09D
:102D40000120FFF7C3FD52E06388019A934208D047
:102D50006388D31A042B04DD0120FFF7B7FDFA279F
:102D600045E02378012B04D1EB68002B31D0EB68D0
:102D700027E02378022B04D12B69002B29D02B6963
:102D80001FE02378042B04D16B69002B21D06B69E1
:102D900017E02378062B04D12B6A002B19D02B6A5D
:102DA0000FE02378072B04D1AB69002B11D0AB695E
:102DB00007E02378FA27052B19D16B6A002B08D07E
:102DC0006B6A60786188059A0839C0B289B20832A6
:102DD0009847094A1378002B00D078E7AB78002B8E
:102DE00000D174E7FFF726FE071E00D16FE73E1CF7
:102DF0006DE770B207B0F0BD6C0200203C0A002005
:102E00007010000084100000F8B51D1C002803D0CD
:102E1000002901D0002A02D1002D18D11AE00F4C50
:102E2000A3689A4216D86368984213D36368A76868
:102E30008618FB189E420DD800F052FD00280AD1DA
:102E40006368A268D318B34201D0002D03D0FFF706
:102E5000F1FD00E0F42040B2F8BDC0463C0A00207D
:102E6000013800B5F423062814D80B4B04F026FAD9
:102E700006040A08100C0E0019610AE0D96008E087
:102E8000596106E0D96104E0196202E0996100E04D
:102E90005962002358B200BD3C0A0020062815D80C
:102EA0000F23042815D01023052812D0122306283A
:102EB0000FD0032300280CD00423012809D00523B8
:102EC000022806D0032803D1062302E0FF2300E0F6
:102ED000FE2358B2704738B5051C0C1CFFF7C4FD23
:102EE00000280AD1281CFFF7D9FF002803DBC0B255
:102EF000211C00F06FFCFFF7DDFD40B238BD38B596
:102F0000051C0C1CFFF7B0FD00280AD1281CFFF798
:102F1000C5FF002803DBC0B2211C00F075FCFFF7E1
:102F2000C9FD40B238BD7FB5002305900520009350
:102F300001930293011C05AA0423FFF7E5FD07B0E6
:102F400000BD000070B5041C9AB0151C2C287BD065
:102F50001B2804D1101C01A90822002384E00628A4
:102F600003D1101C01A930227DE00E2800D1A1E080
:102F7000322815D1504B10221968504B994200D974
:102F80001422281C01A90023FFF73EFF002800D0CF
:102F900090E04B4B1B68002B00D18BE032206CE0A3
:102FA0002F2808D101A800216422FFF726FD281C44
:102FB00001A96422D1E734280DD1101C01A90422F3
:102FC0000023FFF721FF011E74D13D4B1B68002B2E
:102FD00070D0201C6DE0112814D13A4A002301ACB6
:102FE0001370281C211C0422FFF70EFF002861D15A
:102FF000354B22781A70324B1B68002B5AD01120A7
:10300000211C56E013280DD1101C01A92C220023ED
:10301000FFF7FAFE00284DD1294B1B68002B49D041
:1030200013202AE004280DD1101C01A9042200233A
:10303000FFF7EAFE00283DD1214B1B68002B39D059
:1030400004201AE0652803D1281C01A9042284E782
:10305000092803D1101C01A9642204E02A280ED1FA
:10306000101C01A904220123FFF7CEFE002821D164
:10307000134B1B68002B1DD0201C01A919E0202830
:1030800018D101AE101C311C08220023FFF7BCFE32
:1030900000280FD1281C0830B28801990123FFF7BE
:1030A000B3FE002806D1064B1B68002B02D0201C63
:1030B000311C98471AB070BD7C0200204F130000ED
:1030C00070020020740200207502002010B5041E5A
:1030D0003BD0FFF79AFC002837D0201CFFF795FC67
:1030E000202832D8A31CDB7F013B0D2B2DD8231CBD
:1030F00041331B78002B09D1231C42331B78002B52
:1031000004D1231C43331B78002B1ED0231C3F33D8
:103110001B78012B01D1002021E0032B17D1E31CE8
:10312000DB7F013B032B10D8231DDB7F1022934351
:103130000A2B0AD12434201CFFF767FC002804D096
:10314000201CFFF762FC1A28E5D9F42007E0022BC7
:10315000FBD10434E37F083B382BDCD9F5E740B2E0
:1031600010BD000070B58CB06B460126DE710733D0
:10317000002824D00168144A00251160134A181C45
:10318000157000F09DFC041EAC4219D1FFF7A8FC9D
:10319000041EAC420FD10E49301CFFF761FE02A89D
:1031A00000F034FC031C041C0C3309D102A800F00D
:1031B000D7FB041C04E0281C00F0A7FC00E0F4246A
:1031C00060B20CB070BDC0467002002074020020D6
:1031D000452F000008B50023084A9A185268002AB3
:1031E00002D01268910705D41033B02BF4D1FFF749
:1031F00053FD00E0F42040B208BDC046240B00207F
:103200001FB5002300930193029329211A1C01206A
:10321000FFF77AFC05B000BDF0B5A5B01C1C2AABC9
:103220001B88069005932BAB1B780F1C161C07936D
:10323000012A03D17B1E1F2B1BD901E0002C01D1D9
:10324000F4206CE0022AF5D1201CFFF7DEFB4028B9
:10325000F0D10023E25C111C30393629F0D80A394C
:103260000629EDD9473A192AEAD90133402BF1D181
:10327000E0E7059B013B0D2B02D90599FF29DFD122
:1032800009AD68463A1C6A30EF190699FFF7ACFBA6
:103290003B1C403300279F71059A6B462A33DA871F
:1032A000079A531E9A416B468B331A70263B1E7049
:1032B000032E13D123782B70032BC1D862781023EF
:1032C000111C6A7099430A29BAD16846A11C26309C
:1032D000FFF78AFB6378EB189F7016E0022E0AD185
:1032E000201CFFF792FB431E9BB23F2BA8D8421C29
:1032F000211C281C04E0042E05D1281C211C3E2280
:10330000FFF772FB01E0012E9AD100230093019395
:103310000293012028212A1C6C23FFF7F5FB40B201
:1033200025B0F0BD13B504AC2488009400240194AA
:10333000FFF772FF16BD000010B5104C86B0237861
:10334000002B14D1431E0D2B01D9FF2811D10023CE
:1033500005AA107010210093019302930120042309
:10336000FFF7D2FB002805D10123237002E0F220F1
:1033700000E0F12040B206B010BDC046740200204B
:1033800010B5041CFFF770FB002806D1201C00F0CC
:1033900055FA002801D1FFF78DFB40B210BD7FB573
:1033A000002305AA107012210093019302930120BB
:1033B0000423FFF7A9FB07B000BD0000014B1878FC
:1033C000C0B2704775020020F0B5051CB9B00C1CE6
:1033D000161C002837D0FFF779FE071CF420002FB9
:1033E00032D105A8291C8822FFF7FEFA201CFFF71E
:1033F0000CFB002827D0002C25D027AD211C402213
:10340000281CFFF7F1FA37AB1E70114B114A1F70E1
:10341000114B1968CC2391420BD86B461633DA7FD7
:1034200017A8013ADA77211C4022FFF7DDFA2E7047
:103430008A230022009201920292882105AA01208B
:10344000FFF762FB00E0F42040B239B0F0BDC046A7
:10345000740200204F1300007C0200201FB50023DF
:1034600000930193029305211A1C0120FFF74CFBE6
:1034700005B000BD13B5802464000443A520211CC1
:10348000400100F029FAA5200023400101A9019381
:1034900000F01EFA0028F1D1019BA342EED116BD27
:1034A00007B50023114801A9019300F011FA002883
:1034B00019D1019B8021490019430C48019100F06A
:1034C0000BFA00280FD1D020400101A900F000FA2A
:1034D000002808D1019B80214902D02019434001D6
:1034E000019100F0F9F940B20EBDC0460814000089
:1034F000F7B5214D2E682C1C002E3AD180204001BA
:10350000291C00F0E5F9071E27D11C4801A900F08D
:10351000DFF9061E01D02F6029E02B68184A93427C
:1035200004D1019A012A1AD0164B08E0164A934298
:1035300009D1019B032B12D0042B02D1134B236022
:103540000DE0134BFBE7134A934208D1EC208003B4
:10355000291C00F0BDF9002801D02E6007E0226888
:103560000D4B1340A022D2021343236001E0002040
:1035700000E02068FEBDC04678020020F413000081
:10358000A0021000A1021000B0021000B102100051
:10359000B2021000F0001000FFFFF0FF13B5102082
:1035A00001A900F095F9002825D1019B01242342AF
:1035B000F5D1201C01A900F08BF900281BD101993D
:1035C0000223194206D10B2001A900F081F900283D
:1035D00008D010E09943201C019100F07DF90028EB
:1035E000F1D008E001990123194204D099430B203E
:1035F000019100F071F940B216BD37B500230B20E0
:1036000069460093019300F063F9041E31D1009BD9
:1036100001210B4206D00120694600F059F9041E31
:1036200007D026E019430B2000F056F9041EF2D013
:103630001FE0009B02210B4201D0052506E0194343
:10364000012000F049F9041EF7D012E00F2001A973
:1036500000F03EF9041E0CD1019B5B0707D4022049
:10366000013DFFF7D7F8002DF0D1FC2401E000F078
:1036700027F960B23EBD000038B5041C274800F0B1
:1036800023F9002803DB0120FFF7C4F8F6E72448FC
:1036900000F01AF9C30709D5022C15D12149224897
:1036A00000F01AF98021214849031EE0204D012035
:1036B000FFF7B0F8013D1F4800F006F9002D2AD0B1
:1036C0001D4B9842F3D1E7E7032C06D11549164864
:1036D00000F002F91548002107E014481749042CAE
:1036E00003D100F0F9F8802402E000F0F5F800249E
:1036F000FFF7FEFE124B0005000D984202D9022092
:10370000204300E0201CFFF7B5FE0A480D4900F0F9
:10371000E3F8002000E0FB2040B238BD14100000A8
:10372000BC0702007DD51C3CAC0702008C100000D9
:10373000D10700000C000C009ED0AD1052135213A4
:103740009F030000612F52EF37B5134B02380093EF
:10375000124B01931D1C012803D8114B0093114BF0
:103760000193FA24E4000020019B83420AD0022046
:10377000FFF750F8013C009800F0A6F8002CF3D1B8
:10378000FB2407E0019B0024AB4203D10248211C2B
:1037900000F0A2F860B23EBD8C1000003626530245
:1037A000AC070200C3C15DD707B5A02000234001CC
:1037B00001A9019300F08CF8002807D1019B04496E
:1037C000A02019404001019100F086F840B20EBDE2
:1037D000FFFBFFFF37B5041C0D1C0A4801A900F0D0
:1037E00077F800280CD10122019BA240002D01D0C6
:1037F000134300E0934301930248019900F06CF8F1
:1038000040B23EBD0801020037B5041C0D1C0A4839
:1038100001A900F05DF800280CD10122019BA24013
:10382000002D01D0134300E0934301930248019916
:1038300000F052F840B23EBD0001020030B587B042
:103840000023041C01A918480493059300F040F8D4
:10385000002825D1019B002B0BD0C02080021843EB
:1038600004A9082200F03CF8002819D1049A01921A
:1038700005E00E4801A900F02BF8002810D1019AAC
:10388000C02093B28002184302A90622019300F0DF
:1038900027F802A9051C0622201CFFF7A5F8281C02
:1038A00040B207B030BDC04608000C009C140000B8
:1038B00008B5FFF71FF808BD08B5FFF781F808BD88
:1038C00008B500F0C6FA08BD08B500F0D7FA08BD83
:1038D00008B500F0D9FA08BD08B500F0DFFA08BD58
:1038E000F7B50E4B051C1C880191083C161CA4B2B0
:1038F0000027019BD919A64204D8B2B2281C00F0B7
:1039000017FB09E0281C221C00F012FB002803D141
:10391000361B3F192D19ECE740B2FEBD0800002010
:10392000F7B50E4B051C1C880191083C161CA4B26F
:103930000027019BD919A64204D8B2B2281C00F076
:1039400049FB09E0281C221C00F044FB002803D19D
:10395000361B3F192D19ECE740B2FEBD08000020D0
:1039600073B50023041C01A922480193FFF7B0FF9F
:10397000214B019A061C9A4204D1204801A9FFF765
:10398000A7FF061C019B0F251A0C91B2080A2A40BA
:103990000909294062729AB22172110A12092A4059
:1039A0002B4021716271A371E071FFF7A1FD00232B
:1039B00022792384A379617912022B4013430901F0
:1039C000FF2211400B430E4920600B60E179607AC1
:1039D000090205400D43217A09010A4009492A4399
:1039E0008A4200D9F326084A934200D8F32670B2DF
:1039F00076BDC046AC070200C3C15DD748100000C9
:103A00007C02002052130000511300007FB50021FA
:103A100002AD041C019102916960884201D100202D
:103A200042E02822FEF7E9FF214801A9FFF750FFF5
:103A3000002839D10198002801D1F42034E0C026B3
:103A4000B6023043291C0822FFF74AFF00282BD179
:103A5000A88801900028F0D03043211C2822FFF7CD
:103A60003FFF002820D12279A3790F2012020340C2
:103A700013436279FF2112010A4013430D4A136078
:103A8000627AE5790240207A2D0200012A43014042
:103A90000A43002BD1D0002ACFD007498A4202D84E
:103AA000064A9342BBD8F32040B204B070BDC04672
:103AB00008000C007C02002052130000511300008B
:103AC00038B5002803D005786B1E032B00D90125DB
:103AD0000020FFF7EDFE041E15D100F0E9F9281CC7
:103AE000FFF7CAFD041E0CD1281CFFF72DFE041E93
:103AF00007D1023D012D06D9FFF7D2FC002802D0E4
:103B0000041CFFF7D9FE60B238BD10B5FFF74CFEBC
:103B1000041E09D100F0EAFE041E05D1FFF7CCFE19
:103B2000041E01D100F0A4F960B210BD1FB501ABB5
:103B30000190002219810320191C0292FEF7F4FE65
:103B400005B000BD1FB501AB002202901981032012
:103B5000191C0192FEF7E8FE05B000BD73B56C4676
:103B6000061C0734CF2806D0031C3B33DBB2012BE5
:103B700001D90B250EE0201C0121FFF7E3FF0028EF
:103B8000F7D000201CE02378B3420AD0013DEDB20B
:103B9000002D06D0201C0121FFF7D4FF0028F2D011
:103BA000EFE70B25201C0121FFF7CCFF0028E8D10F
:103BB0002378002B03D0013DEDB2002DF2D101207E
:103BC00040B276BDF0B585B000900C1C0192002784
:103BD0008026B601B44200D8A6B20A2568460B304A
:103BE0000121FFF7AFFF002801D0002020E06A4646
:103BF000D37A1B090F2B05D0013DADB22BB2013397
:103C0000ECD1F2E72DB2002DEFDD009BB6B238B259
:103C10001818311CFFF796FF0028E6D1019A002AF8
:103C200009D0A41BF319A4B29FB2002CD0D101205B
:103C300040B205B0F0BD054B1B78002BF1D103A8B5
:103C40000221FFF77FFF0028EBD0CEE780020020A3
:103C500030B585B008AC257801AC2070C1380E288D
:103C600057D803F02BFB2121360E19192B2B4808AE
:103C7000565656561B000B0C63700B0AA370E1706E
:103C800010E00B0ADBB2002D02D080225242134317
:103C90006370A170002304E0002300E0FF23637041
:103CA000A370E370052138E00A0C62700A0AA27062
:103CB0001A0AE1702271637107212EE00A0C62700A
:103CC0000A0AA2701A0C22711A0AE1706271A371B9
:103CD0000FE00B0ADBB2002D02D0802040420343EC
:103CE0006370130EE370130C2371130AA1706371D8
:103CF000A271082111E00B0C63700B0AA370130E64
:103D00002371130C6371130AE170A371E27109212D
:103D100003E0002040B205B030BD0D4B4A1E1B78B9
:103D2000002B0DD17F2001334000994206D0E518C9
:103D3000013D2D786840074D285CF4E7A05400E071
:103D4000D1B2201CFFF7F2FE43425841C0B2E1E776
:103D5000800200208FB20000F0B585B0071C0391EF
:103D60000A25302F02D80123C32601E00023C926EB
:103D70000093301C391C039A0423FFF769FF041ECB
:103D8000012C05D1301CFFF7E9FE041E012C13D0D5
:103D90000120FEF73FFD00230093191C1A1CCF20C1
:103DA000FFF756FF013DCF20FFF7D8FEEDB201200F
:103DB000FEF730FD002DD4D160B205B0F0BDF0B5F6
:103DC00087B0029003910A27029AFF2A02D801269F
:103DD000C42501E00026CA250096281C029900226D
:103DE0000423FFF735FF041E012C1DD1281CFFF70B
:103DF000B5FE041E012C17D105AD281C0421321C70
:103E0000FFF7E0FE041E012C0ED16A78AB78120297
:103E10001B0413432A781343EA7812061343039AC8
:103E2000136060B207B0F0BD0120FEF7F3FC002381
:103E30000093191C1A1CCF20FFF70AFFCF20FFF7B1
:103E40008DFE0120FEF7E6FC7B1EDFB2002FBBD10A
:103E5000E7E713B50024211C221C231C0094CF206B
:103E6000FFF7F6FECF20FFF779FE201C16BD0000FD
:103E7000014B0020187070478002002007B501A98F
:103E8000FFF79DFF01980EBD08B5FFF798FF0128C9
:103E900001D1002000E0FA2040B208BD08B5FFF7CC
:103EA0005BFF012801D1002000E0FA2040B208BDEC
:103EB00013B51D4C00231D4801A901932370FFF782
:103EC0007EFF002803D02378002B09D015E00123C2
:103ED000164801A92370FFF772FF0028F3D11DE0F7
:103EE000019A7C239A435021114310480191FFF716
:103EF00033FF002812D0012323708020400169463F
:103F0000FFF75DFF00280BD00848FFF7B7FF7023CD
:103F10009843502101430548FFF7C0FF002000E00F
:103F2000FA2040B216BDC0468002002024E80000FE
:103F3000F0B5151C89B00022059004910A27039260
:103F4000012D01D10395022500260096C820059970
:103F5000321C2B1CFFF77CFE041E012C1CD1C82038
:103F6000FFF7FCFD041E012C16D1039BB3420AD0BF
:103F7000321C07A8291CFFF725FE6A46137F049A06
:103F8000041C137005E00498291C039AFFF71AFE1D
:103F9000041C63B2012B13D00120FEF73BFC00236D
:103FA0000093191C1A1CCF20FFF752FECF20FFF7F9
:103FB000D5FD0120FEF72EFC7B1EDFB2002FBFD106
:103FC00064B2012C01D1002000E0FA2040B209B017
:103FD000F0BD0000F0B50A2389B004900591151CCE
:103FE0000393012D00D1022500260096C7200499D5
:103FF000321C2B1CFFF72CFE012854D1C720FFF7E1
:10400000ADFD01284FD107AB1E802C1C8023221C44
:104010009B019C4200D91A1C92B20292002E04D13C
:1040200003229C4205D9012203E00022A34252410F
:104030000232102368465B421B301A430121027092
:10404000FFF774FD00282ED1059B30B21818029995
:10405000FFF76CFD002826D1204F3B78002B07D0BE
:10406000029BE41A9E19A4B2B6B2002CCED106E08F
:1040700007A80221FFF75AFD0028F1D013E03E788F
:1040800007A8731E9E410236311CFFF75BFD002816
:1040900009D107AB9E19731E1B78002B03D1023E7A
:1040A0003378C32B16D00120FEF7B4FB0023009316
:1040B000191C1A1CCF20FFF7CBFDCF20FFF74EFDB8
:1040C0000120FEF7A7FB039B013BDBB20393002B10
:1040D00087D1FA2460B209B0F0BDC046800200204A
:1040E000F0B585B003920AAA128802900192002AC4
:1040F00046D0244D02015059002841D0AD18AA885D
:10410000002A3DD0AF7AFFB2012F39D11E4C1F4E8D
:10411000201C18223360FEF767FC0198E080AB8812
:10412000C31A1BB2002B0CDDAB8802999BB2019322
:10413000174B039A1F70174B1970174B1A700023F7
:1041400000E03B1C02980F4F0501E9593068019AC5
:10415000FEF75AFE002813D10199E388ED595B1A46
:10416000E3800E4B25601A68A180002A04D01B68EA
:1041700002980399221C98473068019A13183360FB
:1041800005B0F0BD680A00208802002084020020EB
:104190006C02002082020020A2020020180B0020E6
:1041A000F0B50F1C9DB0141C412801D0542816D125
:1041B0000BAD201C291C04220023FEF725FE00283D
:1041C00000D024E16B7807AA1370924B196800297C
:1041D00000D11CE100201B682856012117E042286D
:1041E00017D10BAD101C291C04220023FEF70CFE76
:1041F000002800D00BE16B7807AA1370854B196873
:10420000002900D103E100201B68285602219847AD
:10421000FDE043283FD107AD101C291C0C220023D0
:10422000FEF7F2FD002800D0F1E0697A48B20028DC
:104230001FDB0823EB56784A1B01D318DE7A0001F6
:104240001318F6B2DE7201269E726C89083CA4B285
:104250001C81724B1C88A419A4B21C801C88002CE1
:1042600003D11C88A419A4B21C801B8810189BB20F
:10427000C3800BAA0223117093806B886968D38076
:10428000644B91601968002900D1C0E008201B68C8
:1042900028560421BBE7442801D04B2821D10BAD7F
:1042A000201C291C04220023FEF7AEFD002800D0AC
:1042B000ADE0287807AA10706B785370002B07D1F7
:1042C000698843B2544C08391B0189B2E31819813B
:1042D000504B1968002900D199E01B6840B20521B4
:1042E00095E74A2812D1101C0BA944220023FEF79F
:1042F0008BFD002800D08AE0494B1A68002A00D1C3
:1043000085E01B681B990BA8984780E0462803D0DE
:10431000482803D04D283FD1062600E0092607ADE6
:104320000023201C291C1022FEF76EFD031E6ED1F7
:10433000EA890C20039228563749020189180B7329
:104340008C46298902916A89059269886D680BAA51
:104350005181D5606146CD880399A94213D1029954
:104360000BB2002B0ADDBB4208DA059963180299EB
:104370000091111C321CFFF7B3FE48E0029B9380B2
:1043800000230B9326E0102F41D9191C1A1C181C6E
:104390000123FEF739FD3AE0452803D0472803D032
:1043A0004C281ED1072600E008260BAD201C291C36
:1043B00008220023FEF728FD002828D128786B88E2
:1043C00007AA40B2144CA98813800301E318DB88C4
:1043D00099421CD10F4B1968002918D01B68311C59
:1043E00015E7522813D10BAD101C291C14220123F0
:1043F000FEF70AFD00280AD10A4B696819601A689D
:10440000002A04D01B682868A9682A7C98471DB038
:10441000F0BDC046180B0020680A0020A002002052
:10442000200B00201C0B0020F8B5264DEC88002C3A
:1044300046D0254B00215956244E09018A59002A9D
:104440003ED072189388002B3AD0131C08339B7807
:10445000DBB2012B34D19088201A00B2002806DD8F
:104460001B4F02233B7094880023A4B202E0184F34
:1044700003223A70174F71583868221CFEF7C4FCAB
:10448000002815D1104A00201056AC800301F658C0
:10449000EB882E601B1BEB800F4B1A68002A04D0A0
:1044A0000E4A1B6811782A1C98473B68E4183C6048
:1044B000074F3B78032B03D100233B70FEF7FAFA3A
:1044C000F8BDC0468802002082020020680A002051
:1044D0006C02002084020020180B0020A2020020A1
:1044E00038B5094D2C78E4B2002C0CD10748211CBA
:1044F000B022FEF782FA02200549FEF7B1FC012343
:104500002B70044B1C8038BD81020020680A0020FB
:10451000A1410000A0020020024B1860024B19606C
:104520007047C046180B0020200B00207FB50028E4
:1045300019DB0F4A0301D3181A1C08329278012A9A
:1045400011D105AA10705170DB880220538000231E
:1045500000930193029342210423FEF7D5FA002829
:1045600002D0F72000E0FA2040B207B000BDC046FC
:10457000680A0020F0B587B0002830DB00292ED073
:10458000002A2CD0184F05017C19A67AA446F6B251
:104590000834012E23D1E95161468A802179002215
:1045A00091421DD12671E2784D21324200D146213F
:1045B000002B01D101235B4204AA107104937D19E1
:1045C000EB880024D38002200094019402940823F5
:1045D000FEF79AFA221CA04202D0044A00E0044AE4
:1045E00010B207B0F0BDC046680A0020F2FF00001C
:1045F000FAFF0000F0B587B0002824DB144E050157
:104600007419A77A211CFFB20831012F1BD105AA0A
:104610001070E388538000238B70E380C8784E21AC
:10462000384200D1492100930193029302200423D0
:10463000FEF76AFA041E00D0F72470190021102238
:10464000FEF7DBF900E0FA2460B207B0F0BDC04627
:10465000680A0020F0B589B0002833DB002931D08A
:10466000002A2FD0194C05016719A4463C1C0834B8
:10467000A678F6B20496012E24D1A678002E01D198
:10468000002320E06646A951BA802279002AF7D19A
:10469000049A2271002B01D101235B4206AA1071FA
:1046A00006936544EB880024D380022008230094FD
:1046B000019402944821FEF727FA231CA04202D05D
:1046C000034B00E0034B18B209B0F0BD680A0020AC
:1046D000F2FF0000FAFF000008B503480021B022F5
:1046E00004F01EFD08BDC046240B0020F7B5051CD4
:1046F000481E141C082800D9EBE002F0DFFDB4EAE4
:10470000EAD00519EAEA5700002A0FD053787F2B28
:104710000CD8704E2C01A1596F4A0023281C341963
:10472000FFF728FF636801221968D0E0281CC4E065
:1047300000210520FEF7E3FB00210220FEF7DFFB4E
:1047400064482901002C1FD00422A35E002B1BDD2E
:104750004618B7683A689B185F4A934204D9736851
:1047600002221C682243B3E03B60002B07D0E388A1
:10477000002B12D0736802221E68324362E0415857
:10478000281CFFF7F7FE08E041184B6801221F685C
:10479000281C97431F60FFF72DFF01210520FEF71E
:1047A000AEFB01210220FEF7AAFB92E000210520CA
:1047B000FEF7A5FB02200021FEF7A1FB002CECD0A8
:1047C000A78839B20029E8DD444B42481B782A010A
:1047D000012B23D88618B368196883580193E3889E
:1047E0009C466744BFB2019B00973F0A5F54009FFD
:1047F0005B185F7067899F7067893F0ADF70E77B8E
:104800001F71E7895F71E7683F0A9F71E768DF7191
:10481000B3680427E65F8919083103E083189B68B1
:104820001E6871181960831899682D4F09682D4EFC
:104830007F1AB74208D8E288002AAED05B6802220D
:104840001F683A431A60A8E7244B1B78002B01D05D
:10485000032B00D108318358281C59181E4A002305
:10486000FFF7F8FE99E7002A33D00023D356002B38
:104870002FD1184A2901501840680424066834438F
:104880000460062D04DC281C191CFFF74FFE20E0F5
:104890008958281C0831104AFFF7DCFE19E0002A6D
:1048A00017D000201056002813DB0A4B2D015D198C
:1048B0006B6808221968114202D0FFF79BFE08E0DE
:1048C00009480140196000202056000401430A43B2
:1048D0001A60F7BD240B0020A60500006C02002022
:1048E000AE050000AD050000FFFF00FF73B5061C1C
:1048F000FEF7FEFD294B0005000D002498424BD920
:10490000274801A9FEF7E4FF041E45D1019B254D70
:1049100025492B40194322480191FEF7DDFF23482A
:10492000211C002E20D0FEF7D7FFAB212048FEF738
:10493000D3FF01211F48FEF7CFFF211C1E48FEF7C1
:10494000CBFF1E488121FEF7C7FF1D48FEF7BCFFC5
:104950000128FAD1019B80211D40490229431048BA
:104960000191FEF7B9FF17E0FEF7B6FFB921104835
:10497000FEF7B2FF01210F48FEF7AEFF211C0E48E3
:10498000FEF7AAFF0D488121FEF7A6FF0C48FEF7AF
:104990009BFF0128FAD1DDE760B276BD9F030000DE
:1049A00010140000FF8F88F80010110108020100A8
:1049B0000C020100140201001C02010004020100AB
:1049C00018020100014B03607047C04698B3000015
:1049D000024B0360024B43607047C046B4B3000013
:1049E00098B3000008B503680C3B1B68C018FFF7BC
:1049F000EFFF08BD014B03607047C046D8B300000D
:104A0000024B0360024B83607047C046C4B4000091
:104A100098B3000008B503680C3B1B68C018FFF78B
:104A2000EFFF08BD014B03607047C046D8B30000DC
:104A3000034B8360034B0360034B03637047C04623
:104A4000D8B30000ECB4000098B3000008B50368C8
:104A50000C3B1B68C018FFF7EBFF08BD034B43601E
:104A6000034B0360034BC3627047C046D8B30000DA
:104A70005CB4000098B3000008B503680C3B1B68E9
:104A8000C018FFF7EBFF08BD7047002070470020FB
:104A90007047002070470020704708B5406A0368DF
:104AA0009B68984708BDF8B5071C0E1C151C0C1C0C
:104AB000786A0368DB689847A31BC0B2AB4203DB8C
:104AC000E843C0172840F8BD20700134F0E710B566
:104AD000041C606A03689B6898470028F9D0606AE4
:104AE00003681B69984700B210BD10B5041C606ACA
:104AF00003689B6898470028F9D0606A0368DB6800
:104B0000984700B210BD081C704700207047002075
:104B10007047012040427047036810B55B6A041C6F
:104B20009847431C02D0E3680133E36010BD081CC2
:104B30007047F7B5041C0191161C0025B5421FDA19
:104B4000631C019ADB7F575DDA0707D52368201CB9
:104B50001A690021944610230422E047A369E26900
:104B6000934204D21F70A3690133A36106E0236856
:104B700039B25B6B201C9847013003D00135DDE76B
:104B8000301C00E0281CFEBD10B5034B041C036064
:104B900000F026FF201C10BDD8B3000010B5034B59
:104BA000041C036000F01CFF201C10BDD8B30000E3
:104BB00010B5034B041C036000F012FF201C10BD55
:104BC00098B3000010B5044B041C0360034B436012
:104BD00000F006FF201C10BDB4B3000098B3000025
:104BE00008B503680C3B1B68C018FFF7EBFF08BD56
:104BF00010B5044B041C0360034B836000F0F0FE0F
:104C0000201C10BDC4B4000098B3000008B50368B0
:104C10000C3B1B68C018FFF7EBFF08BD10B5041C68
:104C2000FFF71CFF201C00F0DBFE201C10BD08B5A8
:104C300003680C3B1B68C018FFF7F0FF08BD10B5F8
:104C4000041CFFF7F5FE201C00F0CAFE201C10BD5E
:104C500008B503680C3B1B68C018FFF7F0FF08BDE0
:104C6000F7B5061C0D1C01920C1C019A631B9342A4
:104C70000CDA27780A2F03D1706A0D2100F0E8FEC4
:104C8000706A391C00F0E4FE0134EEE7101CFEBD32
:104C900070B5051C0C1C4B1C02D1002420B270BD49
:104CA000CEB20A2E03D1686A0D2100F0D1FE686AE7
:104CB000311C00F0CDFEF1E73048F8B5031C0024AC
:104CC00034331C70031C35331C70031C36331C70CA
:104CD000031C403320221A70031D8364031C4C33D1
:104CE0001C70274B274A03601433C362264B274DA1
:104CF0002127062643608262431D10224786866371
:104D0000DA77C4632A1C4464C4600461446184612A
:104D1000C46104621E4904F08FF91E482022031C5E
:104D200038331C70031C39331C70031C3A331C705D
:104D3000031C44331A70031C0833C364031C503330
:104D40001C70154B0F4A0360143303630E4BC26291
:104D50008360031C28330822C786C6631A70046464
:104D60002A1C84644460046144618461C4610462F7
:104D700044620A4904F060F9F8BDC046A40200206C
:104D800094B400005004002018B40000000000207B
:104D90005D4A0000F402002024B50000314A000002
:104DA000437A002B04D18372C372C3600123437220
:104DB000704730B585B0041C02AD006802910392C3
:104DC00000F09AFF6B79E179227A00932068002342
:104DD00001F034F829792068029A00F05DFF20681C
:104DE00000F080FF05B030BD70B5041C1826FFF739
:104DF000D7FF2079331C43430D4D0821EB1859563A
:104E000000F02CFDA079331C43430821EB185956C0
:104E100000F024FD607908214643AD19695600F081
:104E20001DFD044B201C06CBFFF7C3FF70BDC04621
:104E30009CB500004803002010B5041C006800F079
:104E400043FF0023637210BD07B5837A009101927E
:104E5000002B0DD09A0706D5EFF310835A42534129
:104E6000C37272B604E0DA0702D58289034B9A60F6
:104E70000099019AFFF79DFF07BDC046001800404A
:104E8000837A002B0BD09A0704D5C37A002B06D067
:104E900062B604E0DA0702D58289014BDA60704716
:104EA0000018004008B5006800F02FFF08BD0000A2
:104EB0000F4B104A10491A6000225A711A710F4B99
:104EC0000F4819600A211971092199710821597136
:104ED00003215A72DA7119720A4B18601D20187179
:104EE0001B2098711A205A725871DA711972704722
:104EF0004803002000093D00E80300205003002083
:104F0000EC0300206003002008B5042815D80B4BE3
:104F100002F0D4F90F0C06030900181C08490AE036
:104F2000181C084907E0181C074904E0181C074929
:104F300001E00749181C00F099FD08BD500400204D
:104F400040B5000044B5000048B500004DB5000074
:104F500052B5000007B5002300930348191C1A1C22
:104F600000F0FCFC07BDC0467003002070B52C4C5F
:104F700096218CB0201C890101F08EF9201C01F0D3
:104F80008DF90028FAD02749201C00F06FFD03A8F6
:104F900000F050F8059B14265E43039DAE19B54200
:104FA0002ED0291C07A801F0B1F8EB681E490A931E
:104FB0002B6968460B9301F086F807A9684601F053
:104FC000C8F8011C201C00F037FD684601F034F8D9
:104FD0001649201C00F038FD0A220A99201C00F016
:104FE00076FD1349201C00F02FFD0B98FFF78CFF76
:104FF000201C01F0CEF807A801F01EF81435CEE70A
:105000000024059B03989C4206D214236343C018D6
:1050100001F012F80134F4E700F0E2FC0CB070BDCE
:105020005004002057B5000076B500007DB50000A3
:1050300087B50000F0B5082300268BB04360041C40
:1050400006608660A02000F0C7FC414D2060281C4F
:10505000FDF79AF9C0B203900296029B039A93421D
:1050600073DA029A3A48D5B2291CFDF7B9F9011C46
:1050700005A801F028F8291C3548FDF7E1F9291C9D
:1050800008903348FDF702FAA6680990731C019353
:10509000B34241D96368019A9A4228D909369E429F
:1050A00025D9142066607043276800F095FC002322
:1050B00020603D1C0093009AA3689A4214D2226893
:1050C000EE1B9619002E07D0301C291C01F01EF88B
:1050D000EB68F3602A693261281C00F0ADFF009B89
:1050E000143501330093E6E7381C00F079FCA5681D
:1050F00014276F43019B9D421FD22268D619002EB0
:1051000007D0301C05A901F001F8089B099AF3604B
:10511000326101351437EDE7019AB2420ED2142301
:105120005E43151CA2681436954205D223680135EA
:10513000981900F081FFF5E7019BA36005A800F036
:105140007BFF029A0132029287E7201C0BB0F0BD70
:10515000AC01002007B5002300930348191C1A1C5A
:1051600000F0FCFB07BDC0467803002008B50248EC
:1051700000F0DAFE08BDC0468003002013B51249D6
:10518000124800F019FD1249124800F015FD1249AD
:10519000124800F011FD1249124800F00DFD1249AD
:1051A000124800F009FD124C1249201C00F004FDC9
:1051B0000323009301230193211C0D220E230E488B
:1051C00000F08EFE13BDC04600080042E40300203C
:1051D000000C0042E803002000100042EC03002015
:1051E00000140042E003002000180042F0030020F9
:1051F000F4030020001C0042800300200B1C011C53
:10520000021C30B519430220002900D130BD802195
:1052100009068B4216D00D4904205C180C498C42BB
:10522000F4D90C4D5C198C42F0D90B4C590049084B
:105230000320A142EAD9074C0020A142E6D1504206
:105240005041E3E7002AE1D0EFE7C0460000F0FF5D
:10525000FFFFDF7F0000F07FFFFF0F00FEE7000091
:1052600008B5034B1B68002B00D0984708BDC0460B
:10527000F803002038B50F490F4CA14204D100F0CB
:1052800055F800F089FB0BE00C4D8D42F7D0002360
:10529000CA18E818A24204D2006804331060F7E785
:1052A000FEE79042EBD0064B064A9342E7D200223B
:1052B00004C3F9E70000002080010020F8BB0000D3
:1052C00080010020D80B002008B500F02CF8002841
:1052D00001D100F01DF808BD014B18607047C046B1
:1052E000F8030020014B18687047C046FC030020FB
:1052F00070B5041E08D0054B1D681E1C00F012F886
:1053000033685B1BA342F9D370BDC046FC03002089
:1053100008B5034B1A6801321A6000F013FC08BD8F
:10532000FC030020704700207047000070B54A4A17
:105330001E21536802208B430343484953608B6905
:10534000082423438B61464C464B9C829C8A204315
:105350009882101CDA689407FCD5434A0124147023
:105360001478E50704D5404C647864B2002CF7DB70
:1053700001249460547864B2002CFBDB3B4D3A4C22
:105380006560547864B2002CFBDB8225364CED015D
:105390006580547864B2002CFBDB9C8C8025AC4388
:1053A0009C84DC68E606FCD5314D2E4CE562DD6858
:1053B0002C4CEE06FBD5A58C2E4E3543A584DD681E
:1053C000284CEE06FBD5A58C02263543A584DC6867
:1053D0002506FCD5234CE4686606F8D5DC68E506AE
:1053E000FCD500249460547864B2002CFBDB224D81
:1053F0001D4C656055781C4C6DB2002DFADB1E6AA1
:105400001E4D35401D621D6A8026B5431D62032373
:10541000A3601B4B636053785BB2002BFBDB002364
:105420000B72184A4B728B72CB72174BFF211A60AA
:10543000164B174A1B6812685C01D20E21401143BB
:105440009A06520F12020B1C1343124A138543682B
:1054500080221343436070BD0040004100040040BF
:105460000C06000000080040000C0040010501008F
:10547000B805FF7D040A000000070300FFFCFFFFE2
:1054800003060100006CDC020C0000202460800098
:105490002060800000400042F0B51823434385B0EF
:1054A0000292364A1625D3185D5701900391691C64
:1054B00062D0102D60D0324B324C196800291FD1B8
:1054C0004422314803F02CFE30491022CA67304B89
:1054D000C02149005A50C12189005858FF26B043C5
:1054E00058501A602B4A2C4B5A80237802221343BF
:1054F00023706378DB09012BFBD0214B01221A605A
:10550000012763693E1CAE4033436361002101986B
:1055100000F0A4F91C4A0399AB009950072D00DC58
:105520000027FB00029AED1AAD00042A22D8101CB5
:10553000BF0001F0C3FE03080D121700114B052236
:10554000FF18BB6912E00F4904227F18BB690DE008
:105550000C4ABF18BB69032208E00A4B0222FF185D
:10556000BB6903E0074901227F18BB69AA40151CEB
:105570001D43BD61B6B2E66005B0F0BD9CB500004C
:1055800044040020001800400004002004E100E072
:1055900000E100E005400000000C004018235843E3
:1055A000084B18181623C3565A1C09D0102B07D0C5
:1055B00001229A40044B91B2996059699143596113
:1055C0007047C0469CB500000018004070B500242C
:1055D000084D01262B69A640334206D0064BA20097
:1055E000D358002B00D098472E610134102CEFD1F6
:1055F00070BDC0460018004000040020314BFA2165
:10560000186810B5890001F063FE2F4B01389842ED
:1056100024D82E4A2E4B5060186AC0210002000A7E
:105620000906014319620024072194601160196A78
:1056300080220902090A12060A431A62254BFC213C
:105640001A6A0A431A62196AFC2292010A431A6210
:10565000196AA022D2020A431A6200E0FEE7201C67
:105660000021013400F070F8162CF8D11A4C637840
:105670005BB2002BFADB194B6380194B5A7ED209BF
:10568000012AFAD0E422D2009A803F22DA70597EB1
:10569000134AC9090129FAD0C0235B010020136114
:1056A000907000F023F863785BB2002BFBDB0D4AAF
:1056B000094B5A800C4BDA79D209012AFAD04122DF
:1056C0005A7010BD0C000020FFFFFF0010E000E04A
:1056D00000ED00E000040040000C00401E4000000F
:1056E00000400042214000000048004200B5144A3A
:1056F000517E131CC9090129F9D00138042813D897
:105700001969104A0A401A615A780F218A4301F038
:10571000D5FD030509070300012102E0032100E094
:1057200002210A435A700AE01169F0231B050B435A
:10573000136153780F218B4302210B43537000BD3B
:1057400000400042FFFFFFF010B51824021C201C8F
:105750005043274B1818007A40B2013046D0032935
:1057600044D8081C211C01F0A9FD02331121624319
:1057700098569A18C3011F4852681B18991840314F
:10578000022008700121914059602FE06243985631
:1057900018499A185268C3015B18991840310620BD
:1057A000087001219140596099611FE051435A5698
:1057B000104859184B68D2011118C81840300624F7
:1057C00004700120984048600B49521850600DE069
:1057D000624398569A18C301064852681B189918D4
:1057E00040310220087001219140996010BDC046EF
:1057F0009CB5000000440041104400411823584368
:10580000134AF0B5131808241C5701341FD08256D0
:10581000104ED2015D6801249019231C8668AB40AC
:105820001E420BD10E1C771EBE4140193440403041
:10583000A50004780426B4432C430470002903D146
:1058400005495218536002E0024E92199361F0BD6F
:105850009CB500000044004110440041182242431E
:10586000F8B52D4D0824AA181457031C621C50D0FB
:10587000481C00240C284CD801F020FD071E1E1ED9
:105880001E1E1E1E1E0A0A0A0A000124644240E06F
:10589000092902D1181C002103E00A2904D1181C8F
:1058A0000221FFF751FF23E000240B2931D1181CFE
:1058B0000121FFF749FF2CE018225343EA185268F0
:1058C000EB560120141C04405508DB01002C11D0BC
:1058D000124C1B195D1930352E780C010F21314007
:1058E00021439A18C9B229704032137818431070B6
:1058F00000240EE0094E0F279B195D1930352E78D4
:105900009A18BE433143C9B2297040321378184304
:105910001070201CF8BDC0469CB50000004400413A
:10592000F7B5002401900D1C261C019A281C1319A0
:1059300019790A2200F0F3F82E21071C281C00F028
:1059400087F80134C719F619032CEED1019B281CE6
:10595000D9790A2200F0E3F83018FEBD30B503AC67
:10596000044D247808350560017142718371C4715A
:1059700030BDC04600B90000044A054B08321A6029
:1059800000221A715A719A71DA71704700B90000D9
:10599000480400207047000010B5FFF72FFE03F009
:1059A00063FBFFF7F7FF0120FFF7A2FC084C201C68
:1059B00000F0AEFE201C00F00BFFFCF7ABFBFCF789
:1059C000ADFB044B002BFAD000E000BFF7E7C04668
:1059D000170900200000000008B503F06BFB08BDAC
:1059E00008B503F071FB08BDF7B58A18061C0D1C3D
:1059F00001920C1C019B671B9C4207D033682178E5
:105A00001B68301C984701340028F3D1381CFEBDB8
:105A100008B50368C9B21B68984708BD38B5051CAE
:105A20000C1C081E07D003F067FC2B68021C5B6887
:105A3000281C211C984738BD10B504680B1C9A68B7
:105A400009686368984710BD08B5FFF7E7FF08BD10
:105A500008B503681B68984708BD000008B50249EF
:105A6000FFF7DCFF08BDC04610B9000038B5041CC4
:105A7000FFF7D4FF051C201CFFF7F0FF281838BDE6
:105A8000F0B58DB0161C0BAB002201900C1C1A70E7
:105A9000012E00D80A266D462B35201C311C01F042
:105AA0005BFC201CCFB2311C01F012FC291C041C31
:105AB000092F01D8303700E03737FFB22F70013D92
:105AC000002CEAD10198FFF7A9FF0DB0F0BDF8B5A1
:105AD000041C0D1C161E04D10368C9B21B6898472C
:105AE00012E00A2A0DD100290ADA2D21FFF7B0FFB2
:105AF0006942071C321C201CFFF7C2FFC01903E0DB
:105B000000E0D2B2FFF7BCFFF8BD08B5002A02D111
:105B1000FFF77EFF02E0D2B2FFF7B2FF08BD08B583
:105B2000FFF7F3FF08BD0000014B18607047C04647
:105B300010000020024B012252421A607047C046FA
:105B400010000020154A1368581C25D0013B136033
:105B5000002B21D172B6124A124B04329A4207D856
:105B6000BFF34F8F104A114BDA60BFF34F8F11E034
:105B70000F4B197DC807FBD5188B2021FF319208E8
:105B8000520001431983DA610A4A1A801A7DD1074B
:105B9000FCD5E5E7C046FDE77047C0461000002091
:105BA00000200000030200000400FA0500ED00E000
:105BB0000040004102A5FFFF01607047F7B508AC47
:105BC000267804689D1E27686C1EA541ECB29207DA
:105BD00005683A4327063A432A60026807252940A8
:105BE0005068B501002C00D05C03294301430C43ED
:105BF0005460F7BD30B50368C0251C68AD031205BD
:105C00002A402243C024A402090421401143196000
:105C100003685A6814435C6030BD036801211A6848
:105C20000A431A600268116801231942FBD1D16945
:105C30001942F8D17047036802211A680A431A60B2
:105C40000268D3699907FCD4704703681A7ED107AC
:105C500002D41A7E9107FCD57047036800225A834C
:105C600070470368187E4007C00F70470368187EAE
:105C7000C009704703688022197E52420A431A768F
:105C800070470368188DC0B2704703681A7E012000
:105C90000242FBD01985704770B5036801268D0755
:105CA000ED0F31401C686D07090729432143196036
:105CB00004685100034801F00BFB0138C0B22073A7
:105CC00070BDC046006CDC02036801211A680A43FB
:105CD0001A600268116801231942FBD1D169194287
:105CE000F8D17047036802211A680A431A600268F3
:105CF000D3699907FCD470470368DA699107FCD42B
:105D00001A6802218A431A60704703689A6A520A25
:105D100052021143996203681A7E5107FCD5986AB2
:105D2000C0B270470368224A30B5934211D0214A6D
:105D3000934211D0204A934211D0204A934211D06D
:105D40001F4A934211D01F4A934230D10E23192289
:105D50000DE0092314220AE00A23152207E00B2391
:105D6000162204E00C23172201E00D231822DCB2D6
:105D7000154901209B08A0409B0008605B18032088
:105D8000C021890004405D58E000FF248440A54301
:105D90002C1CC0258540281C204358508023DB0143
:105DA0001A430A4B5A805A7852B2002AFBDB30BDA4
:105DB00000080042000C00420010004200140042A3
:105DC00000180042001C004200E100E0000C00400E
:105DD000F8B5041C151C0E1C1F1CFFF7A3FF201C8C
:105DE000FFF71BFFB1001C220A4069072368090C5A
:105DF0000A431A60226884239375012E1AD1082160
:105E0000012D00D110210C4B79431868C00001F01E
:105E10005FFA236807219A890140D2044903D20C12
:105E20000A439A8123680004C20C9889400B4003FE
:105E300010439881F8BDC0460C000020F7B50193CF
:105E400008AB041C1F780D1C161CFFF73DFF201C1F
:105E5000FFF768FFBF070C221743C02292033605E5
:105E60001640C02292022D0423683E43019915403A
:105E7000354307221D600A408021236889020A43B6
:105E80005A60F7BD0120704708B50368014ADB6915
:105E9000984708BD1304000010B5041C0069FFF703
:105EA000BCFE201C143001F08FF910BD08B500694C
:105EB000FFF7CBFE08BD08B5143001F097F908BD17
:105EC00008B5143001F098F908BD08B5143001F098
:105ED0007FF908BD08B50069FFF7D7FE012008BDAE
:105EE000F7B51D1C08AB1B78041C009309AB1B788D
:105EF000161C019300234360FA239B008360094B27
:105F00000F1C08330360143001F048F9009A231C79
:105F10005C3327619A70019A1E705D70201CDA70E4
:105F2000FEBDC04620B9000010B5041C0069FFF793
:105F300098FE002807D02069FFF7A3FE011C201C53
:105F4000143001F036F92069FFF790FE002805D0E3
:105F50002069FFF78FFE2069FFF77FFE10BDF02359
:105F6000081C18403038434258417047F0231B0149
:105F7000194080239B0099420CD0C0239B0099427A
:105F800006D080235B000520994204D0002002E067
:105F9000072000E0062070470F231940012905D093
:105FA00002394B424B410220C01A00E000207047EA
:105FB000F0B5031C85B003915C33041C18271878D6
:105FC0003B1C43431B4E0821F3185956151CFFF781
:105FD00045FC231C5D33187808214743F619715698
:105FE000FFF73CFC01210A1C039B2069FFF7F0FE30
:105FF000291C201CFFF7BAFF291C071C201CFFF7D7
:10600000CBFF291C061C201CFFF7A9FF391C0090A0
:10601000331C20690122FFF7D1FD231C5F3319785F
:10602000013B1A782069FFF7E5FD2069FFF703FEC1
:1060300005B0F0BD9CB5000010B5041C006803F06D
:1060400043F8201C10BD10B5041C0068002801D0C6
:1060500003F03AF800232360A360636010BD38B5F5
:10606000041C0D1C0068013103F0FEF8002801D06B
:1060700021C4012038BD036810B5041C002B02D0D8
:1060800043688B4209D2201CFFF7E9FF002805D0A6
:10609000A368002B01D122681370012010BD70B5D8
:1060A0000E1C111C041C151CFFF7E5FF002803D172
:1060B000201CFFF7C8FF04E0A5602068311C03F036
:1060C00013F9201C70BD38B50023041C0D1C03609F
:1060D00043608360994207D0081C03F00DF9291C26
:1060E000021C201CFFF7DBFF201C38BD10B50B1C69
:1060F000041E8C4208D00968002903D09A68FFF773
:10610000CEFF01E0FFF79FFF201C10BD10B500235C
:10611000041C036043608360FFF7E8FF201C10BD90
:10612000F8B5041C0F1C866801D100250FE001257D
:10613000002A0CD09619311CFFF79DFF0028F4D0DF
:106140002268A368391CD01803F0CEF8A660281C7A
:10615000F8BD0B1C10B509689A68041CFFF7E0FF36
:10616000002802D1201CFFF76EFF201C10BD3F202D
:10617000704713B502686B46D97107335468191C10
:106180000122A04716BD08B50069022100F024FCD9
:1061900008BD08B50069032100F034FC08BD38B51E
:1061A0000D1C041C131C006903212A1C00F01AFD9D
:1061B000002801D10123636038BD000010B5054CF3
:1061C00023685A1C04D10368DB6898472060031CCD
:1061D000181C10BD64000020074A08B51368591C3C
:1061E00004D0012149421160181C03E0006902211A
:1061F00000F0EAFC08BDC0466400002008B5037842
:106200000349023303704222024800F095FD08BDA5
:10621000200000201709002010B50178031C4278E7
:106220000020A12908D1212A2FD118481849072276
:1062300000F082FD012028E0212926D1202A05D165
:1062400013490722114800F023FC04E0222A10D150
:106250009A780F4BDA710E4B96221968D200914250
:1062600010D1DC7901231C400CD1FA20FFF75CFC33
:106270000AE0232A09D1DA789B7812021A43054BE7
:106280001A6002E0FFF756FC002010BD170900203D
:10629000140000201C0000207047000010B5FFF71C
:1062A00021F8F423FF330024984207D9044B0A2035
:1062B000DC79631E9C41E4B2FFF71AF8201C10BD84
:1062C00014000020064BFA2189009960054900223C
:1062D0000831196004495A6019611A767047C0463E
:1062E0005004002050B900001709002070B5C2B258
:1062F00019495301CB189E68184DC0242E40A4059F
:1063000026439E60164E8001096830180832586096
:106310005201505C0726B0430126304350549E6919
:1063200035402C439C610F4C5C61505C7024A04351
:106330001024204350549C680B488A182040802425
:1063400064032043986098684021800B8003986024
:1063500053790B43537170BD1C090020FFFFFF8F61
:106360003807002078050020FF3F00F038B5041CF6
:1063700008CC01211A78051C0A431A708022201CBF
:106380000021520002F0CCFE2B689A78D107FCD491
:106390005C6238BD134BF0B51B6899035A029B0130
:1063A000C90ED20E5B0F1F2900D105211F2A00D173
:1063B0001D22072B00D1032304688E01278D0A4973
:1063C0001F2539403143218501682A400C8DAC439B
:1063D00022430A8502681903108D044B03400B43C6
:1063E0001385F0BD246080003FF8FFFFFF8FFFFFA3
:1063F000EFF3108303600123436072B670470368B4
:10640000002B02D162B6BFF36F8F704737B50569B5
:10641000041C6846002D12D1FFF7EAFF019B013BE7
:1064200003D3621DD57FEDB2F9E768460193FFF70C
:10643000E6FF0020854217D0206AE36913E0FFF7EA
:10644000D7FF019B0025013B04D3221C3432157871
:10645000EDB2F8E768460193FFF7D1FF00208542CF
:1064600002D0206BE36AC01A3EBD0000436810B53D
:106470001A68037A01215B01D318FF339A7A0A4321
:106480009A72037A42685B01D318C2689C689104CF
:106490000B4A090922400A439A60037A42685B0169
:1064A000D3189A684021920B92039A6043681A6845
:1064B000037A08335B01D3181A790A431A7110BDA5
:1064C000FF3F00F0F7B50569041C0E1C171C684659
:1064D000002D1FD1FFF78CFF019B013B5A1C06D0FA
:1064E000621DD17F5A1E00293AD0131CF6E7684678
:1064F0000193FFF784FF0025E369BD4235D0226A8E
:10650000934232D25A1CE261A269D3181B787355A8
:106510000135F1E7FFF76CFF019B013B5A1C08D0E6
:10652000221C343215785A1EEDB2002D18D0131CDF
:10653000F4E768460193FFF762FF0025E36ABD4276
:1065400026D0226B934241D322E0621D0021D177F5
:1065500030321678581E8E4214D1031C5A1CF4D1C6
:1065600068460193FFF74BFF38E0226A934235D12A
:106570000023E361012323616846FFF739FF019B94
:10658000013BEBE71170201C0193FFF76FFFF6E76B
:10659000226B934222D10023E36223616846FFF716
:1065A00027FF019B013B5A1CDAD0221C3432002108
:1065B000117001321678581E8E4201D1031CF2E789
:1065C0001170201C0193FFF751FFEAE75A1CE262A9
:1065D000A26AD3181B7873550135AFE7281CFEBD9E
:1065E00037B54368027A1B68083252019A18041CB6
:1065F000D0790123FF21184253D0D371A068656977
:1066000062680140002D20D14901521891686361F0
:106610008904890C2162A16A68465160621DD377A2
:10662000FFF7E6FE019B013B5A1C33D0221C34329B
:106630001178581EC9B20132002903D001930123F9
:10664000137023E01170031CEEE74B01D3189A6816
:10665000A5699204920C22630022626168465D6023
:10666000FFF7C6FE019B013B01E011702B1C591C7A
:1066700010D0221C343201201070621DD17F5D1EAB
:10668000C9B230320029F0D0019310706846FFF78C
:10669000B6FE06E068460193FFF7B1FE201CFFF747
:1066A000E5FE37BD37B500236C46E3710734201C87
:1066B0000D1CFFF7A3FD2B681818286000F0ECFDF7
:1066C000211C00F0A2FD2B681818286020783EBD20
:1066D00003290BD10D4BB2221B685200985C80211C
:1066E000494201439954022168220CE001290CD14E
:1066F000064B92221B685200985C8021494201435C
:10670000995402212822FF32995470471C09002015
:1067100038B5264B2021DA69051C0A43DA61244B7F
:1067200001201A78062402431A70224B0F2219788E
:10673000914319701978214319701F490C7820432F
:10674000087019780A401A701A7860210A431A7082
:106750001A4B1B4A5A805A78D209FCD11948FEF7C5
:10676000BBFD194C201CFFF701FE201CFFF712FE99
:1067700023687F2219780A401A701A7804210A4384
:106780001A701A890C218A431A81C1210F4A890083
:1067900050580002000A5050802111601A780221DE
:1067A0000A431A7001232B7038BDC0460004004014
:1067B000584400413C44004159440041000C004011
:1067C000064000007D7100001C09002000E100E08F
:1067D0000078002810D0094B01211B681A898A43D0
:1067E0001A811A8B08210A431A831A8B04210A433F
:1067F0001A83034B00221A607047C0461C09002010
:10680000200A00200F4B9A69920B92039A611B6831
:106810000222FF331A7298798022524202439A71FF
:106820001A7A9007FCD5084B081C997A7F221040F1
:10683000914301439972997A802252420A439A7293
:106840007047C0461C0900200050004110B50B796C
:106850000C1C002B0BD1081CFFF7DEFC002804D118
:10686000094B9A69920B92039A6101200BE000F0A8
:1068700013FD211C00F0FDFC0028F6D1024B9A69A3
:10688000920B92039A6110BD1C090020F8B50D1CF3
:10689000832A16D1CAB242495301CB189C69414898
:1068A000AD012040C024A405204398613E48083231
:1068B00045195D610B685201D15C70208143402015
:1068C00065E0022A45D13820FFF786F8374B344F70
:1068D0008026036076000023421D0362036143614A
:1068E000C36147608560C660D3772F32041CC362E2
:1068F00003631370301C537002F0DCFBA061301C8A
:1069000002F0D8FBFF232A1C1A405201A062BF18D4
:10691000B968244A07260A40C02189050A43BA609B
:10692000A16862681940126808314901885CAD00AD
:10693000B043032630438854A16862680B405B0172
:10694000A169D3185960201CFFF790FD184BEC503B
:1069500025E0822A1ED1CAB211495301CB189C6985
:106960001048AD012040C024A405204398610E4882
:10697000083245195D610B68520199180C79802025
:10698000404220430871D15C702081433020014394
:10699000D15404E0002A02D1081CFFF7A7FCF8BD7F
:1069A0001C090020FFFFFF8F7805002080B9000040
:1069B000F808002038B5051C0124064BA200D25867
:1069C000002A06D0211C281C0134FFF75FFFE4B227
:1069D000F3E738BD6800002008B5084B8A00D0589E
:1069E000002803D003689B68984706E0C9B2044BAF
:1069F0004901591888688004800C08BDF8080020F7
:106A00001C09002010B50C1CFFF7E6FF00280CD075
:106A1000064BE1B21B680831490159184A798023B5
:106A20005B4213434B710223CB7110BD1C09002044
:106A300070B5CAB2134B144854018901591803198F
:106A400059609D681149083229408025AD022943CB
:106A5000996099684026890B890399600368510100
:106A600059180D7935430D715101591889794D0621
:106A7000FAD551015918C979CD07FAD50419A0687A
:106A8000C0B270BD380700201C090020FF3F00F095
:106A900038B50C4B141C1B680D1CFF335A79402170
:106AA0000A435A710021FFF7C3FFA04200D9201CFE
:106AB0000023A34204D0044A9A5CEA540133F8E765
:106AC00038BDC0461C0900203807002010B5C9B2E7
:106AD0000C48490143189A689204920C3F2A08D93D
:106AE000141C9A68403CA404920BA40C9203224309
:106AF00002E09A68920B92039A6041188868C0B2CB
:106B000010BDC0461C090020F0B51C1C2A4B85B0E6
:106B10001B68061C0D1C0292002B46D0274B8A00D6
:106B2000D058002805D0036802995B68221C98475A
:106B30003FE0301CFFF750FFA04204D2301C291C5C
:106B4000FFF74AFF041C291C301CFFF7BFFF1C4F36
:106B5000E9B24A010191396803928B18FF335A7ADE
:106B600001210A4317495A72AB01C9180298221C25
:106B700002F0B4FA002C1BD0301C291CFFF72CFFAC
:106B8000002815D1019B3A6808335B01D3181979A5
:106B90004020014319710121D97103995318FF3322
:106BA0009A7A01210A439A7202E00120404200E0F1
:106BB000201C05B0F0BDC046200A0020F8080020C7
:106BC0001C0900203807002013B56C460734221C2E
:106BD0000123FFF799FF012801D1207801E001206E
:106BE000404216BDF0B51C1C3A4B85B01B680E1C0C
:106BF0000292002B60D08023DB019C425CD80022F3
:106C00000092002C56D0344DF7B22B6801933B1CF8
:106C10000833019A5B01D3189B79DB091AD02F4BFB
:106C20002F49186800F054FB2E4B1721584300F0F1
:106C30004FFB3B1C0833019A5B01D318DB799A07A1
:106C400008D4294B9A5D002A38D1421E002835D03D
:106C5000101CEEE7244B00229A55251E3F2D00D92B
:106C60003F25224AB301D318181C02992A1C03930A
:106C700002F034FA184A7B01D318039AA9045A6126
:106C80009A69890C920B92030A439A613B1C019A00
:106C900008335B01D3180222DA71597980225242FB
:106CA0000A435A71009B029A5B1952190093641BA4
:106CB0000292A6E700980BE0012008E001229A5515
:106CC0007B01ED18AB69101C9B0B9B03AB61404231
:106CD00005B0F0BD200A00201C0900200C00002097
:106CE00040420F007011010070050020780500205F
:106CF00070B50E4D1C1C8B01ED18281C0E1C111CB0
:106D0000221C02F0EBF9F6B20949760189194D61AE
:106D10008A69084B201C13408B618B69A2049B0B72
:106D2000920C9B0313438B6170BDC0467805002015
:106D30001C090020FF3F00F0F7B5114B01901B78B4
:106D40000F1C141C002B19D10E4B1E78002E01D1E4
:106D5000151C08E00C4D0D482E888019361902F0DC
:106D6000BDF92E800AE0002D08D0BA192B1C01981D
:106D70000021FFF7BDFF36182D1AF4E7201CFEBDD9
:106D800016090020140900206E0500206D04002063
:106D9000F8B50E1C00AF151E012D28D9D31DDB0838
:106DA000DB006A46D21A9546081C02F0A5FA0130AB
:106DB0006C4640000323207063700222AA420ED268
:106DC0003378002B0BD0511CC9B20136A354A94211
:106DD00004D0002302326354D2B2EFE72A1C0548E4
:106DE000211CFFF7A9FF431E9841C0B200E000201C
:106DF000BD46F8BD1709002008B5044B00221A70E3
:106E0000034B04491A88FFF797FF08BD14090020B7
:106E10006E0500206D040020F0B5204A87B00123E4
:106E20000026009102A91370051C0296FFF73AFC98
:106E300003AC092701903A1C201C311C02F070F9A8
:106E400002236370A023E371FA232372029B0122C1
:106E5000DB196380019B62712371104A009B2770CC
:106E60001670BB4205D1281C211C1A1CFFF764FFB9
:106E700011E00B4B01221A700A4B211C3A1C281CF2
:106E80001E800296FFF758FF281C02A9FFF70AFC94
:106E9000281CFFF7B1FF012007B0F0BD1609002044
:106EA000140900206E05002070B5CE788AB0051C4C
:106EB0000C1C022E08D1C9882348FFF7ADFF031C24
:106EC000581E8341D8B23DE000F0E6F9211C00F0E5
:106ED000B1F9002803D0C3171B1AD80F32E0012ED6
:106EE00004D1E2881949112A27D823E0032E29D199
:106EF000A278002A05D11649E2880B78934219D866
:106F00001BE0022A03D1A279281C124904E0012ABD
:106F100005D1A2791049281CFFF73AFF12E0032A95
:106F200010D100F0B9F901A900F094F9A279281C58
:106F300001A9F1E7D2B2002A00D10A78281CFFF794
:106F4000FBFE01200AB070BD17090020A0B90000A7
:106F50009CB90000B2B9000090B9000073B5051CDF
:106F600048780C1C0B2878D800F0A8F9081C772862
:106F7000773E4306474B686F00206FE0097801AA0F
:106F8000002903D111705170281C09E000231370EF
:106F90005370334B1B78012B00D11370281C002138
:106FA00002234FE08A780023012A04D101AA13703A
:106FB00053702C4BEEE72A4A137049E08E78012E6D
:106FC00007D1284B01AA00211E701170281C331C08
:106FD00038E0002E08D1224A01231370224A916919
:106FE000890B8903916138E0A178281CFFF70AFC1E
:106FF00033E0281CFFF758FF30E0281C00211B4A13
:107000001FE00A780020D30628D1281CFFF7D2FC05
:10701000A2781549154B02241A600A682A23FF3307
:10702000D05C2043D0544A20FF30145C01231C4321
:1070300014548A69920B92038A610EE00C4A281C50
:1070400000210123FFF754FE07E08A78084B1A60FD
:10705000054B9A69920B92039A61012076BDC04656
:107060006C040020150900201C090020200A0020C3
:1070700018090020F8B53B4B071C1C78002C6FD179
:10708000394D2868838B19070DD5201CFFF72EF981
:107090002B6810201A1CFF32917A01439172334AF7
:1070A000146008229A832B689A8B500701D504221A
:1070B0009A83FF331A7AD10626D510221A725A798A
:1070C00040210A432A495A710A786023381C1A421F
:1070D00002D1FFF743FF01E0FFF7B8FB002806D01D
:1070E0002B688022FF33997952420A4301E0214BF9
:1070F00020229A712B68FF331A7A500604D5402259
:107100001A72597A0A435A722968FE230E8C002497
:107110001E40E1B2002E23D0321C012322411A422C
:1071200016D0221C2868083252018218D0791842E1
:1071300003D1D279DA401A4207D00F4BA200D058BF
:10714000002809D003681B6898470123A3409E4389
:107150000134092CDDD103E0381CFFF7B9FAF4E75C
:10716000F8BDC046140900201C090020200A002098
:1071700038070020FF500041F808002008B50248F9
:10718000FFF778FF08BDC04617090020014A024BEF
:107190001A607047005000411C09002010B5002102
:1071A0004022041C01F0BCFF0023201C2364636404
:1071B00010BD026C10B53F23541C2340446CA34205
:1071C00001D08154036410BD0023036443647047FD
:1071D000436C026C934206D0C25C3F2101330B40EA
:1071E0004364101C01E0012040427047026C436C74
:1071F000D01A00D540307047436C026C934201D0E6
:10720000C05C01E001204042704770B544680E1C2C
:107210000025002C09D02368201C5B68311C98478E
:10722000002804DB2D18E468F3E7281C01E00120A6
:10723000404270BD38B544680D1C002C08D023684E
:10724000201C9B68291C9847002802D1E468F4E7B9
:10725000201C38BD38B544680D1C002C07D02368AD
:10726000201C291CDB689847E4682D18F5E72C7072
:1072700038BD38B544680D1C002C08D02368201C8C
:107280001B68291C9847002803D1E468F4E7201CF8
:1072900000E0012038BD0000064B0122196810B53E
:1072A0001140054805D10224047004244470416053
:1072B0001A6010BD2C0A0020240A002002B4714676
:1072C00049084900095C49008E4402BC7047C04629
:1072D000002934D00123002210B488422CD3012489
:1072E0002407A14204D2814202D209011B01F8E71E
:1072F000E400A14204D2814202D249005B00F8E7D7
:10730000884201D3401A1A434C08A04202D3001B02
:107310005C0822438C08A04202D3001B9C08224335
:10732000CC08A04202D3001BDC082243002803D073
:107330001B0901D00909E3E7101C10BC70470028A5
:1073400001D00020C04307B4024802A140180290B7
:1073500003BDC046D90000000029F0D003B5FFF7F7
:10736000B9FF0EBC4243891A1847C046002941D0D4
:1073700010B4041C4C40A44601230022002900D56F
:107380004942002800D5404288422CD301242407DA
:10739000A14204D2814202D209011B01F8E7E400B4
:1073A000A14204D2814202D249005B00F8E7884240
:1073B00001D3401A1A434C08A04202D3001B5C08B8
:1073C00022438C08A04202D3001B9C082243CC0815
:1073D000A04202D3001BDC082243002803D01B0973
:1073E00001D00909E3E7101C6446002C00D5404297
:1073F00010BC7047002806D003DB0020C0434008C3
:1074000001E08020000607B4024802A14018029063
:1074100003BDC046190000000029EBD003B5FFF7FB
:10742000A7FF0EBC4243891A1847C0467047C046A2
:107430008446101C62468C46191C634600E0C04618
:107440001FB500F03BFF002801D40021C8421FBD3A
:1074500010B500F06BFE4042013010BD10B500F0D9
:107460002DFF002801DB002010BD012010BDC0460B
:1074700010B500F023FF002801DD002010BD012021
:1074800010BDC04610B500F09BFE002801DC0020B6
:1074900010BD012010BDC04610B500F091FE0028BF
:1074A00001DA002010BD012010BDC046F8B55F46CE
:1074B000564644464D46F0B40C034D00CE0F610ACB
:1074C000440F2143C400180380465800400D8246F3
:1074D000D80F84464046400A530F0343D0006D0D39
:1074E000371C83465246664500D19DE0AF1A002FF7
:1074F00000DC03E1002A38D1184300D0E4E0630740
:1075000009D00F232340042B05D0231DA342A441FF
:10751000644209191C1C080200D478E0CE4B6A1C96
:107520009A4200D105E1CD4BE408194048075205C5
:10753000490204430B0B520D371C002000211B0392
:10754000201C1C0B0B0D1B05C54D23435205520877
:107550001D4015436D006D08FF07291C39433CBCD5
:1075600090469946A246AB46F8BDBB488542C6D078
:10757000802000040343382F00DDECE01F2F00DDE6
:1075800020E12020C01B1A1C814682405846F8404A
:107590000243944658464A469040421E9041FB4062
:1075A000624602431F1CA21A9442A4416442C91BB2
:1075B000091B141C0B02A2D549024F0A002F00D14F
:1075C000C4E0381C01F01AFD021C083A1F2A00DD35
:1075D000B7E02821091A201C9740C840074394406F
:1075E000954200DDA9E0551B691C1F2900DDD8E08C
:1075F0001F22551B3B1C221CAB40CA40AC40651EE1
:10760000AC411343CF401C43391C002577E74807A2
:10761000E4086A05C908520D371C04438E4B9D428D
:1076200048D009030B0B88E7AA1A9446002A00DC0D
:1076300098E05046002853D08748854200D15EE745
:107640008020000403436246382A00DDFDE01F2A43
:1076500000DD4BE120226046101A1A1C824082464F
:10766000914658466246D0404A46024390465846A4
:1076700052469040421E9041424602436046C340FB
:107680001219A242A441644259180919141C080293
:1076900000D434E7704B01359D4200D124E16F4B9B
:1076A00060081940012323401C1C0443CB071C43E2
:1076B000490824E70B1C234300D1C7E180231B03A7
:1076C0000B431B031B0B38E7013F002F64D15846C7
:1076D000221A9442A4416442C91A091B141C69E786
:1076E0005846184300D10AE70122524294446046AA
:1076F000002800D0C5E058460219C2E7002F72D119
:10770000681C4005400D012800DCDEE05A46A21A44
:107710009442BF41C81A7F42C71B380200D488E098
:107720005A46141BA3459241591A52428F1A664673
:1077300044E7371C00230024FFE64849AD1A3940CE
:10774000DDE6271C28388740002449E7201C01F08B
:1077500055FC203038E75A461A43531E9A41D2B29C
:10776000002720E7002A00D0DDE0681C4205520D0A
:10777000012A00DC8EE0384DA84200D1B3E05D461E
:107780002A19A242A441644259180919CC07520887
:1077900014434908051CB2E62F48854200D0EAE6AA
:1077A000ADE62B1C1F3B3A1CDA40131C20296DD080
:1077B0003F22551BAF403C43601E84411C430021C7
:1077C00000259CE6381C20381A1CC240101C202FB3
:1077D0005ED04022D71BBB405A461A43531E9A41E3
:1077E00002430027DFE6002D3CD01B4DAA4500D107
:1077F00094E080252D047F422943382F00DDADE041
:107800001F2F00DD2CE12025ED1B081C261CA840A5
:10781000FE40AC400643651EAC413443F9405D4632
:107820002C1BA34592415B1A5242991A5546664653
:10783000C0E6131C3B43141C002B00D0BEE60027FF
:107840000022002500210024E8E65A461A43531E70
:107850009A41D2B2002313E7FF070000FFFF7FFF2A
:10786000FFFF0F800D1C254358D0FF43002F51D13F
:10787000041BA3459241591A5242891A554666463D
:1078800098E69648854200D0DDE638E6002792E784
:107890000023A1E7081C2043002D00D0C0E00028F1
:1078A00000D1FBE05846184300D128E6584602199B
:1078B000A242A441644259180919141C0A0200D4B6
:1078C0001DE6874B0125194019E6081C2043002DB1
:1078D00039D100286DD15946194300D1BDE0191C9A
:1078E0005C4666460BE6051C2A1CABE76046203862
:1078F0001A1CC24060469146202800D1ABE04022CD
:10790000121A93405A461A43531E9A414B461A4341
:107910000023B5E6714DAA4500D06EE7191C5C4600
:1079200055466646EBE5002D1ED10D1C254373D050
:10793000D543002D6DD15C445C45924159185242AB
:1079400089185546A3E6002849D15946194300D164
:1079500096E0191C5C466646604DD0E50C43611EFE
:107960008C41E4B200215AE75C4DAA4554D05542FF
:10797000802210040143382D00DD85E01F2D00DD3D
:1079800095E02022501B0A1C84468240201CE840BF
:107990000243904662469440601E8441424614432E
:1079A000E9405C445C459241CB18524299185546D7
:1079B0006DE65846184300D1A1E55846271ABC4247
:1079C0009241C81A5242801A02026AD55846041BD4
:1079D000A3459241591A5242891A66468FE5584684
:1079E000184336D04807E40804438020C908000340
:1079F000014208D0DD08054205D15946CA085C0796
:107A00001443291C6646630FC9001943E400334D33
:107A100075E5324A9245AED1191C5C4655466EE575
:107A2000002837D05846184313D080254807E4086B
:107A3000C9082D0304432942E5D0D8082842E2D1E1
:107A40005D46EA085C071443011CDCE700230024C0
:107A500073E5224D53E5002354E700270022F1E6A9
:107A60003D1C203D0A1CEA40151C202F31D0402629
:107A7000F71BB9400C43611E8C412C430021CEE61C
:107A8000164A0027151CDDE60C43611E8C41E4B24A
:107A9000002186E7191C5C46104D30E5191C5C4638
:107AA0002DE5031C3B43D8D0011C3C1C27E52020BE
:107AB000404240190A1CC2409046202D0BD0402065
:107AC000451BA9400C43611E8C4145462C430021B7
:107AD00067E70021CEE70021F4E7C046FF0700007A
